:06000000020030020200C4
:0300130002025096
:10003000D2AFD2A8D2AA75890175800075900075DB
:10004000A0007E017F187C017D3C7A017B3C120080
:1000500086EA643C70027A00EA20B4FD12009AF548
:10006000800ADBEAEC643C70027C00EC12009AF53A
:10007000900CDDD6EE641870027E00EE12009AF548
:10008000A00EDFC280BC7840758AE5758CFFD28CEB
:10009000308DFDC28DD8F1C28C2275F00A84C44522
:0200A000F0224C
:1002000030B424F53185F032C2A8C2AAEC643C7047
:10021000027C00EC12009AF590743C9CFD0CE531D8
:080220008532F0D2A8D2AA3207
:1002500030B424F53385F034C2A8C2AAEE64187015
:10026000027E00EE12009AF5A074189EFF0EE53390
:080270008534F0D2A8D2AA32B5
:00000001FF
