:100000000C942A000C9457010C949B011895000045
:10001000189500001895000018950000189500002C
:10002000189500000C94F800189500001895000031
:10003000189500001895000018950000189500000C
:1000400018950000189500001895000018950000FC
:10005000189500008FE58DBFC0E4E8E34E2E84E0E4
:100060008EBFD4E0F4E05F2EEEEFF3E0A0E6B0E068
:10007000A89584B7082E877F84BF88E1992781BD22
:1000800091BD88278D933197E9F766248FEF8ABB5E
:100090008FEF84BB8FEF87BB8E9A85E083BF85B7D8
:1000A0008C7F826085BF85B7837F886085BF7894A9
:1000B00089B7816089BF89B7816089BF8BB7806448
:1000C0008BBF8BB780688BBF82E08093680080E035
:1000D00080936600809165008068809365008091C0
:1000E000650080648093650080E090E0A3E6B0E066
:1000F0008D939C93A3E6B0E08D919C91A0E6B0E037
:100100008D939C930E9488000C947A00F894FFCF02
:100110008FE785BB80E080936700009167000F3117
:1001200018F011F00C94F7000091670048E00E946D
:100130004C0208BBE6ECF3E0A0E6B0E08D919C91A8
:10014000A2E6B0E00E9449020027A5E6B0E08C914B
:1001500086FB0EF401E040E0041711F00C94B600A9
:10016000A2E6B0E08C918BBB0C94BD00A2E6B0E09F
:10017000EBE3F0E08C9180958083EF93FF93E4EEC6
:10018000F3E00E942602FF91EF9180E08BBB91E0AB
:1001900085B3BB27A8E10E942F0285BBA0E6B0E093
:1001A0000E941F02A0E6B0E00D911C91083750E0BC
:1001B000150711F00C94EF0080E090E0A3E6B0E0AA
:1001C0008D939C93A5E6B0E08C9186FB882780F9FF
:1001D000809580FBA5E6B0E08C9186F98C93A7E62C
:1001E000B0E08C918F5F8C9310F40C948D00089587
:1001F0000F921F922F923F924F925F927F92AF92F7
:10020000BF920F931F932F933F934F935F936F93DF
:100210007F938F939F93AF93BF93CF93DF93EF938E
:10022000FF938FB78F930027A5E6B0E08C9187FBF3
:100230000EF401E041E0041711F00C943B01A6E636
:10024000B0E08C918F5F8C934091680000916600C4
:10025000041710F40C943B0180E080936600A3E641
:10026000B0E00D911C9141E050E0040F151FA3E692
:10027000B0E00D931C938F918FBFFF91EF91DF91B1
:10028000CF91BF91AF919F918F917F916F915F912E
:100290004F913F912F911F910F91BF90AF907F9001
:1002A0005F904F903F902F901F900F9018950F9256
:1002B0001F922F923F924F925F927F92AF92BF9286
:1002C0000F931F932F933F934F935F936F937F935E
:1002D0008F939F93AF93BF93CF93DF93EF93FF934E
:1002E0008FB78F93A5E6B0E08C9187FB882780F9C4
:1002F000809580FBA5E6B0E08C9187F98C938F9177
:100300008FBFFF91EF91DF91CF91BF91AF919F91FF
:100310008F917F916F915F914F913F912F911F919D
:100320000F91BF90AF907F905F904F903F902F9034
:100330001F900F9018950F921F922F923F924F92FD
:100340005F927F92AF92BF920F931F932F933F9331
:100350004F935F936F937F938F939F93AF93BF93CD
:10036000CF93DF93EF93FF938FB78F9380E08093CA
:100370006600A8E6B0E08C918F5F8C9300916800D6
:10038000063010F40C94C70181E0809368008F91CF
:100390008FBFFF91EF91DF91CF91BF91AF919F916F
:1003A0008F917F916F915F914F913F912F911F910D
:1003B0000F91BF90AF907F905F904F903F902F90A4
:1003C0001F900F9018950000000000000000000032
:1003D000000000000000000000000000000000001D
:1003E00000000000000000000000000000001808ED
:1003F000090818282838000018480808F800382884
:1004000038080700001838A82808081838680800B5
:10041000F8000000000000000000000000000000E4
:1004200000000000000000000000000000000000CC
:100430000000000000000000000000000000ED913E
:10044000FC91EF5FFF4FFC93EE9308953197F1F726
:100450000895689462F80895E89462F808959030D9
:1004600039F08C91869508F480689A95D9F78C9329
:100470000895C89531960020089591E005C092E056
:1004800003C094E001C098E0F4DF0D929A95E1F783
:100490000895E80FF91FF1CFFF93881BF9E0001FC3
:1004A000FA9511F4FF910895881F841B18F4840FA6
:0804B0008894F5CF0894F3CF06
:00000001FF
